{
  "contractName": "HotelBooking",
  "abi": [
    {
      "inputs": [],
      "stateMutability": "nonpayable",
      "type": "constructor"
    },
    {
      "anonymous": false,
      "inputs": [
        {
          "indexed": false,
          "internalType": "address",
          "name": "recipient",
          "type": "address"
        },
        {
          "indexed": false,
          "internalType": "uint256",
          "name": "amount",
          "type": "uint256"
        }
      ],
      "name": "FundsWithdrawn",
      "type": "event"
    },
    {
      "anonymous": false,
      "inputs": [
        {
          "indexed": false,
          "internalType": "uint256",
          "name": "reservationId",
          "type": "uint256"
        },
        {
          "indexed": false,
          "internalType": "address",
          "name": "guest",
          "type": "address"
        },
        {
          "indexed": false,
          "internalType": "uint256",
          "name": "refundAmount",
          "type": "uint256"
        }
      ],
      "name": "GuestRefunded",
      "type": "event"
    },
    {
      "anonymous": false,
      "inputs": [
        {
          "indexed": false,
          "internalType": "uint256",
          "name": "reservationId",
          "type": "uint256"
        },
        {
          "indexed": false,
          "internalType": "address",
          "name": "guest",
          "type": "address"
        },
        {
          "indexed": false,
          "internalType": "uint256",
          "name": "amount",
          "type": "uint256"
        }
      ],
      "name": "PaymentMade",
      "type": "event"
    },
    {
      "anonymous": false,
      "inputs": [
        {
          "indexed": false,
          "internalType": "uint256",
          "name": "reservationId",
          "type": "uint256"
        },
        {
          "indexed": false,
          "internalType": "address",
          "name": "guest",
          "type": "address"
        }
      ],
      "name": "ReservationCancelled",
      "type": "event"
    },
    {
      "anonymous": false,
      "inputs": [
        {
          "indexed": false,
          "internalType": "uint256",
          "name": "reservationId",
          "type": "uint256"
        },
        {
          "indexed": false,
          "internalType": "address",
          "name": "guest",
          "type": "address"
        },
        {
          "indexed": false,
          "internalType": "uint256",
          "name": "roomId",
          "type": "uint256"
        },
        {
          "indexed": false,
          "internalType": "uint256",
          "name": "startDate",
          "type": "uint256"
        },
        {
          "indexed": false,
          "internalType": "uint256",
          "name": "endDate",
          "type": "uint256"
        }
      ],
      "name": "ReservationMade",
      "type": "event"
    },
    {
      "inputs": [],
      "name": "owner",
      "outputs": [
        {
          "internalType": "address",
          "name": "",
          "type": "address"
        }
      ],
      "stateMutability": "view",
      "type": "function",
      "constant": true
    },
    {
      "inputs": [
        {
          "internalType": "uint256",
          "name": "",
          "type": "uint256"
        }
      ],
      "name": "reservations",
      "outputs": [
        {
          "internalType": "address",
          "name": "guest",
          "type": "address"
        },
        {
          "internalType": "uint256",
          "name": "roomId",
          "type": "uint256"
        },
        {
          "internalType": "uint256",
          "name": "startDate",
          "type": "uint256"
        },
        {
          "internalType": "uint256",
          "name": "endDate",
          "type": "uint256"
        },
        {
          "internalType": "bool",
          "name": "isPaid",
          "type": "bool"
        }
      ],
      "stateMutability": "view",
      "type": "function",
      "constant": true
    },
    {
      "inputs": [
        {
          "internalType": "uint256",
          "name": "",
          "type": "uint256"
        }
      ],
      "name": "rooms",
      "outputs": [
        {
          "internalType": "bool",
          "name": "isAvailable",
          "type": "bool"
        },
        {
          "internalType": "uint256",
          "name": "price",
          "type": "uint256"
        }
      ],
      "stateMutability": "view",
      "type": "function",
      "constant": true
    },
    {
      "inputs": [
        {
          "internalType": "uint256",
          "name": "roomId",
          "type": "uint256"
        },
        {
          "internalType": "uint256",
          "name": "startDate",
          "type": "uint256"
        },
        {
          "internalType": "uint256",
          "name": "endDate",
          "type": "uint256"
        }
      ],
      "name": "makeReservation",
      "outputs": [],
      "stateMutability": "nonpayable",
      "type": "function"
    },
    {
      "inputs": [
        {
          "internalType": "uint256",
          "name": "reservationId",
          "type": "uint256"
        },
        {
          "internalType": "uint256",
          "name": "amount",
          "type": "uint256"
        }
      ],
      "name": "makePayment",
      "outputs": [],
      "stateMutability": "payable",
      "type": "function",
      "payable": true
    },
    {
      "inputs": [
        {
          "internalType": "uint256",
          "name": "reservationId",
          "type": "uint256"
        }
      ],
      "name": "cancelReservation",
      "outputs": [],
      "stateMutability": "nonpayable",
      "type": "function"
    },
    {
      "inputs": [
        {
          "internalType": "uint256",
          "name": "reservationId",
          "type": "uint256"
        }
      ],
      "name": "refundGuest",
      "outputs": [],
      "stateMutability": "nonpayable",
      "type": "function"
    },
    {
      "inputs": [],
      "name": "getBalance",
      "outputs": [
        {
          "internalType": "uint256",
          "name": "",
          "type": "uint256"
        }
      ],
      "stateMutability": "view",
      "type": "function",
      "constant": true
    },
    {
      "inputs": [
        {
          "internalType": "uint256",
          "name": "amount",
          "type": "uint256"
        }
      ],
      "name": "withdrawFunds",
      "outputs": [],
      "stateMutability": "nonpayable",
      "type": "function"
    },
    {
      "inputs": [],
      "name": "reservationCount",
      "outputs": [
        {
          "internalType": "uint256",
          "name": "",
          "type": "uint256"
        }
      ],
      "stateMutability": "view",
      "type": "function",
      "constant": true
    }
  ],
  "bytecode": "0x608060405234801561000f575f80fd5b50335f806101000a81548173ffffffffffffffffffffffffffffffffffffffff021916908373ffffffffffffffffffffffffffffffffffffffff1602179055506040518060400160405280600115158152602001606481525060015f600181526020019081526020015f205f820151815f015f6101000a81548160ff02191690831515021790555060208201518160010155905050604051806040016040528060011515815260200160c881525060015f600281526020019081526020015f205f820151815f015f6101000a81548160ff02191690831515021790555060208201518160010155905050604051806040016040528060011515815260200161012c81525060015f600381526020019081526020015f205f820151815f015f6101000a81548160ff02191690831515021790555060208201518160010155905050604051806040016040528060011515815260200161019081525060015f600481526020019081526020015f205f820151815f015f6101000a81548160ff0219169083151502179055506020820151816001015590505060405180604001604052806001151581526020016101f481525060015f600581526020019081526020015f205f820151815f015f6101000a81548160ff02191690831515021790555060208201518160010155905050604051806040016040528060011515815260200161025881525060015f600681526020019081526020015f205f820151815f015f6101000a81548160ff0219169083151502179055506020820151816001015590505060405180604001604052806001151581526020016102bc81525060015f600781526020019081526020015f205f820151815f015f6101000a81548160ff02191690831515021790555060208201518160010155905050604051806040016040528060011515815260200161032081525060015f600881526020019081526020015f205f820151815f015f6101000a81548160ff02191690831515021790555060208201518160010155905050604051806040016040528060011515815260200161038481525060015f600981526020019081526020015f205f820151815f015f6101000a81548160ff0219169083151502179055506020820151816001015590505060405180604001604052806001151581526020016103e881525060015f600a81526020019081526020015f205f820151815f015f6101000a81548160ff02191690831515021790555060208201518160010155905050611b23806103b65f395ff3fe608060405260043610610090575f3560e01c8063ae5e6cf411610058578063ae5e6cf41461018d578063d390f974146101b5578063de06e7a6146101d1578063e84f756e146101f9578063eb79f2241461022357610090565b8063067cf8321461009457806312065fe0146100d4578063155dd5ee146100fe5780631bae0ac8146101265780638da5cb5b14610163575b5f80fd5b34801561009f575f80fd5b506100ba60048036038101906100b59190610eb7565b61024b565b6040516100cb959493929190610f4a565b60405180910390f35b3480156100df575f80fd5b506100e86102b7565b6040516100f59190610f9b565b60405180910390f35b348015610109575f80fd5b50610124600480360381019061011f9190610eb7565b6102be565b005b348015610131575f80fd5b5061014c60048036038101906101479190610eb7565b610473565b60405161015a929190610fb4565b60405180910390f35b34801561016e575f80fd5b5061017761049f565b6040516101849190610fdb565b60405180910390f35b348015610198575f80fd5b506101b360048036038101906101ae9190610eb7565b6104c2565b005b6101cf60048036038101906101ca9190610ff4565b6106a0565b005b3480156101dc575f80fd5b506101f760048036038101906101f29190611032565b61088a565b005b348015610204575f80fd5b5061020d610b6a565b60405161021a9190610f9b565b60405180910390f35b34801561022e575f80fd5b5061024960048036038101906102449190610eb7565b610b76565b005b6002818154811061025a575f80fd5b905f5260205f2090600502015f91509050805f015f9054906101000a900473ffffffffffffffffffffffffffffffffffffffff1690806001015490806002015490806003015490806004015f9054906101000a900460ff16905085565b5f47905090565b47811115610301576040517f08c379a00000000000000000000000000000000000000000000000000000000081526004016102f8906110dc565b60405180910390fd5b5f8054906101000a900473ffffffffffffffffffffffffffffffffffffffff1673ffffffffffffffffffffffffffffffffffffffff163373ffffffffffffffffffffffffffffffffffffffff161461038e576040517f08c379a00000000000000000000000000000000000000000000000000000000081526004016103859061116a565b60405180910390fd5b5f3373ffffffffffffffffffffffffffffffffffffffff16826040516103b3906111b5565b5f6040518083038185875af1925050503d805f81146103ed576040519150601f19603f3d011682016040523d82523d5f602084013e6103f2565b606091505b5050905080610436576040517f08c379a000000000000000000000000000000000000000000000000000000000815260040161042d90611213565b60405180910390fd5b7feaff4b37086828766ad3268786972c0cd24259d4c87a80f9d3963a3c3d999b0d3383604051610467929190611231565b60405180910390a15050565b6001602052805f5260405f205f91509050805f015f9054906101000a900460ff16908060010154905082565b5f8054906101000a900473ffffffffffffffffffffffffffffffffffffffff1681565b6002805490508110610509576040517f08c379a0000000000000000000000000000000000000000000000000000000008152600401610500906112a2565b60405180910390fd5b5f6002828154811061051e5761051d6112c0565b5b905f5260205f2090600502019050806004015f9054906101000a900460ff161561057d576040517f08c379a000000000000000000000000000000000000000000000000000000000815260040161057490611337565b60405180910390fd5b805f015f9054906101000a900473ffffffffffffffffffffffffffffffffffffffff1673ffffffffffffffffffffffffffffffffffffffff163373ffffffffffffffffffffffffffffffffffffffff161461060d576040517f08c379a0000000000000000000000000000000000000000000000000000000008152600401610604906113c5565b60405180910390fd5b5f816002015490505b81600301548111610662576001805f846001015481526020019081526020015f205f015f6101000a81548160ff021916908315150217905550808061065a90611410565b915050610616565b507f26e6c74836bdcc80bfb93ba978b86eebabcb84777e33bee0334c5ceee5e22d498233604051610694929190611457565b60405180910390a15050565b60028054905082106106e7576040517f08c379a00000000000000000000000000000000000000000000000000000000081526004016106de906112a2565b60405180910390fd5b5f600283815481106106fc576106fb6112c0565b5b905f5260205f2090600502019050806004015f9054906101000a900460ff161561075b576040517f08c379a000000000000000000000000000000000000000000000000000000000815260040161075290611337565b60405180910390fd5b805f015f9054906101000a900473ffffffffffffffffffffffffffffffffffffffff1673ffffffffffffffffffffffffffffffffffffffff163373ffffffffffffffffffffffffffffffffffffffff16146107eb576040517f08c379a00000000000000000000000000000000000000000000000000000000081526004016107e2906114ee565b60405180910390fd5b8134101561082e576040517f08c379a000000000000000000000000000000000000000000000000000000000815260040161082590611556565b60405180910390fd5b6001816004015f6101000a81548160ff0219169083151502179055507f61ac8e9b735e72d1382cbf7d35f2ff3764dae09d7faf7d90787bf7f9ae76e4c883338460405161087d93929190611574565b60405180910390a1505050565b8260015f8281526020019081526020015f205f015f9054906101000a900460ff166108ea576040517f08c379a00000000000000000000000000000000000000000000000000000000081526004016108e190611619565b60405180910390fd5b83838360015f8481526020019081526020015f205f015f9054906101000a900460ff1661094c576040517f08c379a000000000000000000000000000000000000000000000000000000000815260040161094390611681565b60405180910390fd5b610957838383610df4565b610996576040517f08c379a000000000000000000000000000000000000000000000000000000000815260040161098d9061170f565b60405180910390fd5b8585116109d8576040517f08c379a00000000000000000000000000000000000000000000000000000000081526004016109cf9061179d565b60405180910390fd5b5f6040518060a001604052803373ffffffffffffffffffffffffffffffffffffffff1681526020018981526020018881526020018781526020015f15158152509050600281908060018154018082558091505060019003905f5260205f2090600502015f909190919091505f820151815f015f6101000a81548173ffffffffffffffffffffffffffffffffffffffff021916908373ffffffffffffffffffffffffffffffffffffffff1602179055506020820151816001015560408201518160020155606082015181600301556080820151816004015f6101000a81548160ff02191690831515021790555050505f8790505b868111610b0f575f60015f8b81526020019081526020015f205f015f6101000a81548160ff0219169083151502179055508080610b0790611410565b915050610acb565b507f89c08b054026b6e22fb168432d71139ee8b2f4d0dcfc66f6f336d4c12da674d46001600280549050610b4391906117bb565b338a8a8a604051610b589594939291906117ee565b60405180910390a15050505050505050565b5f600280549050905090565b6002805490508110610bbd576040517f08c379a0000000000000000000000000000000000000000000000000000000008152600401610bb4906112a2565b60405180910390fd5b5f60028281548110610bd257610bd16112c0565b5b905f5260205f2090600502019050806004015f9054906101000a900460ff16610c30576040517f08c379a0000000000000000000000000000000000000000000000000000000008152600401610c27906118af565b60405180910390fd5b5f8054906101000a900473ffffffffffffffffffffffffffffffffffffffff1673ffffffffffffffffffffffffffffffffffffffff163373ffffffffffffffffffffffffffffffffffffffff1614610cbd576040517f08c379a0000000000000000000000000000000000000000000000000000000008152600401610cb49061193d565b60405180910390fd5b5f815f015f9054906101000a900473ffffffffffffffffffffffffffffffffffffffff1690505f610d0f8360020154846003015460015f876001015481526020019081526020015f2060010154610e4e565b905080471015610d54576040517f08c379a0000000000000000000000000000000000000000000000000000000008152600401610d4b906119cb565b60405180910390fd5b5f836004015f6101000a81548160ff0219169083151502179055508173ffffffffffffffffffffffffffffffffffffffff166108fc8290811502906040515f60405180830381858888f19350505050158015610db2573d5f803e3d5ffd5b507f9ed4c791fe4fecb17bdfc7d28ed5925d2fb7719de842516ff7183221ad87a178848383604051610de693929190611a44565b60405180910390a150505050565b5f808390505b828111610e415760015f8681526020019081526020015f205f015f9054906101000a900460ff16610e2e575f915050610e47565b8080610e3990611410565b915050610dfa565b50600190505b9392505050565b5f8060018585610e5e91906117bb565b610e689190611a79565b90508281610e769190611aac565b9150509392505050565b5f80fd5b5f819050919050565b610e9681610e84565b8114610ea0575f80fd5b50565b5f81359050610eb181610e8d565b92915050565b5f60208284031215610ecc57610ecb610e80565b5b5f610ed984828501610ea3565b91505092915050565b5f73ffffffffffffffffffffffffffffffffffffffff82169050919050565b5f610f0b82610ee2565b9050919050565b610f1b81610f01565b82525050565b610f2a81610e84565b82525050565b5f8115159050919050565b610f4481610f30565b82525050565b5f60a082019050610f5d5f830188610f12565b610f6a6020830187610f21565b610f776040830186610f21565b610f846060830185610f21565b610f916080830184610f3b565b9695505050505050565b5f602082019050610fae5f830184610f21565b92915050565b5f604082019050610fc75f830185610f3b565b610fd46020830184610f21565b9392505050565b5f602082019050610fee5f830184610f12565b92915050565b5f806040838503121561100a57611009610e80565b5b5f61101785828601610ea3565b925050602061102885828601610ea3565b9150509250929050565b5f805f6060848603121561104957611048610e80565b5b5f61105686828701610ea3565b935050602061106786828701610ea3565b925050604061107886828701610ea3565b9150509250925092565b5f82825260208201905092915050565b7f496e73756666696369656e7420636f6e74726163742062616c616e63650000005f82015250565b5f6110c6601d83611082565b91506110d182611092565b602082019050919050565b5f6020820190508181035f8301526110f3816110ba565b9050919050565b7f4f6e6c792074686520636f6e7472616374206f776e65722063616e20776974685f8201527f647261772066756e647300000000000000000000000000000000000000000000602082015250565b5f611154602a83611082565b915061115f826110fa565b604082019050919050565b5f6020820190508181035f83015261118181611148565b9050919050565b5f81905092915050565b50565b5f6111a05f83611188565b91506111ab82611192565b5f82019050919050565b5f6111bf82611195565b9150819050919050565b7f4661696c656420746f2077697468647261772066756e647300000000000000005f82015250565b5f6111fd601883611082565b9150611208826111c9565b602082019050919050565b5f6020820190508181035f83015261122a816111f1565b9050919050565b5f6040820190506112445f830185610f12565b6112516020830184610f21565b9392505050565b7f496e76616c6964207265736572766174696f6e204944000000000000000000005f82015250565b5f61128c601683611082565b915061129782611258565b602082019050919050565b5f6020820190508181035f8301526112b981611280565b9050919050565b7f4e487b71000000000000000000000000000000000000000000000000000000005f52603260045260245ffd5b7f5061796d656e742068617320616c7265616479206265656e206d6164650000005f82015250565b5f611321601d83611082565b915061132c826112ed565b602082019050919050565b5f6020820190508181035f83015261134e81611315565b9050919050565b7f4f6e6c79207468652067756573742063616e2063616e63656c207468652072655f8201527f736572766174696f6e0000000000000000000000000000000000000000000000602082015250565b5f6113af602983611082565b91506113ba82611355565b604082019050919050565b5f6020820190508181035f8301526113dc816113a3565b9050919050565b7f4e487b71000000000000000000000000000000000000000000000000000000005f52601160045260245ffd5b5f61141a82610e84565b91507fffffffffffffffffffffffffffffffffffffffffffffffffffffffffffffffff820361144c5761144b6113e3565b5b600182019050919050565b5f60408201905061146a5f830185610f21565b6114776020830184610f12565b9392505050565b7f4f6e6c79207468652067756573742063616e206d616b6520746865207061796d5f8201527f656e740000000000000000000000000000000000000000000000000000000000602082015250565b5f6114d8602383611082565b91506114e38261147e565b604082019050919050565b5f6020820190508181035f830152611505816114cc565b9050919050565b7f496e73756666696369656e74207061796d656e7420616d6f756e7400000000005f82015250565b5f611540601b83611082565b915061154b8261150c565b602082019050919050565b5f6020820190508181035f83015261156d81611534565b9050919050565b5f6060820190506115875f830186610f21565b6115946020830185610f12565b6115a16040830184610f21565b949350505050565b7f526f6f6d20616c726561647920626f6f6b6564206f7220646f6573206e6f74205f8201527f6578697374000000000000000000000000000000000000000000000000000000602082015250565b5f611603602583611082565b915061160e826115a9565b604082019050919050565b5f6020820190508181035f830152611630816115f7565b9050919050565b7f526f6f6d206973206e6f7420617661696c61626c6500000000000000000000005f82015250565b5f61166b601583611082565b915061167682611637565b602082019050919050565b5f6020820190508181035f8301526116988161165f565b9050919050565b7f526f6f6d20697320616c726561647920626f6f6b656420666f722074686520735f8201527f656c656374656420646174657300000000000000000000000000000000000000602082015250565b5f6116f9602d83611082565b91506117048261169f565b604082019050919050565b5f6020820190508181035f830152611726816116ed565b9050919050565b7f456e6420646174652073686f756c642062652067726561746572207468616e205f8201527f7374617274206461746500000000000000000000000000000000000000000000602082015250565b5f611787602a83611082565b91506117928261172d565b604082019050919050565b5f6020820190508181035f8301526117b48161177b565b9050919050565b5f6117c582610e84565b91506117d083610e84565b92508282039050818111156117e8576117e76113e3565b5b92915050565b5f60a0820190506118015f830188610f21565b61180e6020830187610f12565b61181b6040830186610f21565b6118286060830185610f21565b6118356080830184610f21565b9695505050505050565b7f5061796d656e7420686173206e6f74206265656e206d61646520666f722074685f8201527f6973207265736572766174696f6e000000000000000000000000000000000000602082015250565b5f611899602e83611082565b91506118a48261183f565b604082019050919050565b5f6020820190508181035f8301526118c68161188d565b9050919050565b7f4f6e6c792074686520636f6e7472616374206f776e65722063616e20726566755f8201527f6e64206775657374730000000000000000000000000000000000000000000000602082015250565b5f611927602983611082565b9150611932826118cd565b604082019050919050565b5f6020820190508181035f8301526119548161191b565b9050919050565b7f496e73756666696369656e7420636f6e74726163742062616c616e636520666f5f8201527f7220726566756e64000000000000000000000000000000000000000000000000602082015250565b5f6119b5602883611082565b91506119c08261195b565b604082019050919050565b5f6020820190508181035f8301526119e2816119a9565b9050919050565b5f819050919050565b5f611a0c611a07611a0284610ee2565b6119e9565b610ee2565b9050919050565b5f611a1d826119f2565b9050919050565b5f611a2e82611a13565b9050919050565b611a3e81611a24565b82525050565b5f606082019050611a575f830186610f21565b611a646020830185611a35565b611a716040830184610f21565b949350505050565b5f611a8382610e84565b9150611a8e83610e84565b9250828201905080821115611aa657611aa56113e3565b5b92915050565b5f611ab682610e84565b9150611ac183610e84565b9250828202611acf81610e84565b91508282048414831517611ae657611ae56113e3565b5b509291505056fea2646970667358221220e9553b592d6bfc4e4eed0bf4170f5e344353984a60ebb6f6ec39be34d32ec4ee64736f6c63430008140033",
  "immutableReferences": {},
  "source": "// SPDX-License-Identifier: MIT\n// Compiler version must be greater than or equal to 0.8.17 and less than 0.9.0\n\npragma solidity ^0.8.17;\n\ncontract HotelBooking {\n    address public owner;\n\n    struct Reservation {\n        address guest;\n        uint256 roomId;\n        uint256 startDate;\n        uint256 endDate;\n        bool isPaid;\n    }\n\n    struct Room {\n        bool isAvailable;\n        uint256 price;\n    }\n\n    mapping(uint256 => Room) public rooms;\n    Reservation[] public reservations;\n\n    event ReservationMade(uint256 reservationId, address guest, uint256 roomId, uint256 startDate, uint256 endDate);\n    event PaymentMade(uint256 reservationId, address guest, uint256 amount);\n    event ReservationCancelled(uint256 reservationId, address guest);\n    event FundsWithdrawn(address recipient, uint256 amount);\n    event GuestRefunded(uint256 reservationId, address guest, uint256 refundAmount);\n\n    modifier roomExists(uint256 roomId) {\n        require(rooms[roomId].isAvailable, \"Room already booked or does not exist\");\n        _;\n    }\n\n    modifier roomAvailable(uint256 roomId, uint256 startDate, uint256 endDate) {\n        require(rooms[roomId].isAvailable, \"Room is not available\");\n        require(isRoomAvailable(roomId, startDate, endDate), \"Room is already booked for the selected dates\");\n        _;\n    }\n\n    constructor() {\n        owner = msg.sender;\n\n        rooms[1] = Room(true, 100);\n        rooms[2] = Room(true, 200);\n        rooms[3] = Room(true, 300);\n        rooms[4] = Room(true, 400);\n        rooms[5] = Room(true, 500);\n        rooms[6] = Room(true, 600);\n        rooms[7] = Room(true, 700);\n        rooms[8] = Room(true, 800);\n        rooms[9] = Room(true, 900);\n        rooms[10] = Room(true, 1000);\n    }\n\n\n    function makeReservation(uint256 roomId, uint256 startDate, uint256 endDate)\n        public\n        roomExists(roomId)\n        roomAvailable(roomId, startDate, endDate)\n    {\n        require(endDate > startDate, \"End date should be greater than start date\");\n\n        Reservation memory reservation = Reservation(msg.sender, roomId, startDate, endDate, false);\n        reservations.push(reservation);\n\n        for (uint256 i = startDate; i <= endDate; i++) {\n            rooms[roomId].isAvailable = false;\n        }\n\n        emit ReservationMade(reservations.length - 1, msg.sender, roomId, startDate, endDate);\n    }\n\n    function makePayment(uint256 reservationId, uint256 amount) public payable {\n        require(reservationId < reservations.length, \"Invalid reservation ID\");\n\n        Reservation storage reservation = reservations[reservationId];\n\n        require(!reservation.isPaid, \"Payment has already been made\");\n        require(msg.sender == reservation.guest, \"Only the guest can make the payment\");\n        require(msg.value >= amount, \"Insufficient payment amount\");\n\n        reservation.isPaid = true;\n\n        emit PaymentMade(reservationId, msg.sender, amount);\n    }\n\n\n    function cancelReservation(uint256 reservationId) public {\n        require(reservationId < reservations.length, \"Invalid reservation ID\");\n\n        Reservation storage reservation = reservations[reservationId];\n\n        require(!reservation.isPaid, \"Payment has already been made\");\n        require(msg.sender == reservation.guest, \"Only the guest can cancel the reservation\");\n\n        for (uint256 i = reservation.startDate; i <= reservation.endDate; i++) {\n            rooms[reservation.roomId].isAvailable = true;\n        }\n\n        emit ReservationCancelled(reservationId, msg.sender);\n    }\n\n    \n\n    function refundGuest(uint256 reservationId) public {\n        require(reservationId < reservations.length, \"Invalid reservation ID\");\n\n        Reservation storage reservation = reservations[reservationId];\n\n        require(reservation.isPaid, \"Payment has not been made for this reservation\");\n        require(msg.sender == owner, \"Only the contract owner can refund guests\");\n\n        address payable guest = payable(reservation.guest);\n        uint256 refundAmount = calculateRefundAmount(reservation.startDate, reservation.endDate, rooms[reservation.roomId].price);\n\n        require(address(this).balance >= refundAmount, \"Insufficient contract balance for refund\");\n\n        reservation.isPaid = false;\n\n        guest.transfer(refundAmount);\n\n        emit GuestRefunded(reservationId, guest, refundAmount);\n    }\n\n    function calculateRefundAmount(uint256 startDate, uint256 endDate, uint256 pricePerNight) private pure returns (uint256) {\n        uint256 totalNights = endDate - startDate + 1;\n        return totalNights * pricePerNight;\n    }\n\n\n    function getBalance() public view returns (uint256) {\n        return address(this).balance;\n    }\n\n    function withdrawFunds(uint256 amount) public {\n        require(amount <= address(this).balance, \"Insufficient contract balance\");\n        require(msg.sender == owner, \"Only the contract owner can withdraw funds\");\n\n        (bool success, ) = payable(msg.sender).call{value: amount}(\"\");\n        require(success, \"Failed to withdraw funds\");\n\n        emit FundsWithdrawn(msg.sender, amount);\n    }\n\n\n    function isRoomAvailable(uint256 roomId, uint256 startDate, uint256 endDate) private view returns (bool) {\n        for (uint256 i = startDate; i <= endDate; i++) {\n            if (!rooms[roomId].isAvailable) {\n                return false;\n            }\n        }\n        return true;\n    }\n\n    function calculateTotalPrice(uint256 startDate, uint256 endDate, uint256 pricePerNight) private pure returns (uint256) {\n        uint256 totalNights = endDate - startDate + 1;\n        return totalNights * pricePerNight;\n    }\n\n    function reservationCount() public view returns (uint256) {\n    return reservations.length;\n    }\n}\n",
  "sourcePath": "/home/masukunhlonipho/truffle-react/contracts/HotelBooking.sol",
  "compiler": {
    "name": "solc",
    "version": "0.8.20+commit.a1b79de6.Emscripten.clang"
  },
  "schemaVersion": "3.4.14",
  "updatedAt": "2023-07-04T12:28:34.310Z",
  "networkType": "ethereum",
  "devdoc": {
    "kind": "dev",
    "methods": {},
    "version": 1
  },
  "userdoc": {
    "kind": "user",
    "methods": {},
    "version": 1
  }
}